{
  "transactions": [
    {
      "hash": "0xd8e16916f5302f8c1a0cffad2ca5db24994995ef39568fee467b1b0d81240523",
      "transactionType": "CALL",
      "contractName": null,
      "contractAddress": "0x779877a7b0d9e8603169ddbd7836e478b4624789",
      "function": "transferAndCall(address,uint256,bytes)",
      "arguments": [
        "0x9DdfaCa8183c41ad55329BdeeD9F6A8d53168B1B",
        "3000000000000000000",
        "0xc65aa42895a6a88bd6320e83d98c4015c31ee7aa8924a82ed44fa77f8b46353f"
      ],
      "transaction": {
        "from": "0xe60b9c8a0dd31cd8b9fc74d2f2bca15b1ac01a4a",
        "to": "0x779877a7b0d9e8603169ddbd7836e478b4624789",
        "gas": "0x1c1ff",
        "value": "0x0",
        "input": "0x4000aea00000000000000000000000009ddfaca8183c41ad55329bdeed9f6a8d53168b1b00000000000000000000000000000000000000000000000029a2241af62c000000000000000000000000000000000000000000000000000000000000000000600000000000000000000000000000000000000000000000000000000000000020c65aa42895a6a88bd6320e83d98c4015c31ee7aa8924a82ed44fa77f8b46353f",
        "nonce": "0x57",
        "chainId": "0xaa36a7"
      },
      "additionalContracts": [],
      "isFixedGasLimit": false
    }
  ],
  "receipts": [
    {
      "status": "0x1",
      "cumulativeGasUsed": "0x121d9c4",
      "logs": [
        {
          "address": "0x779877a7b0d9e8603169ddbd7836e478b4624789",
          "topics": [
            "0xddf252ad1be2c89b69c2b068fc378daa952ba7f163c4a11628f55a4df523b3ef",
            "0x000000000000000000000000e60b9c8a0dd31cd8b9fc74d2f2bca15b1ac01a4a",
            "0x0000000000000000000000009ddfaca8183c41ad55329bdeed9f6a8d53168b1b"
          ],
          "data": "0x00000000000000000000000000000000000000000000000029a2241af62c0000",
          "blockHash": "0x266c89f4a7ef27bbc165cbac03dda1f64438ba30d95e078e1f141661d4ec30f7",
          "blockNumber": "0x7de2bc",
          "blockTimestamp": "0x68169780",
          "transactionHash": "0xd8e16916f5302f8c1a0cffad2ca5db24994995ef39568fee467b1b0d81240523",
          "transactionIndex": "0x7a",
          "logIndex": "0xd8",
          "removed": false
        },
        {
          "address": "0x779877a7b0d9e8603169ddbd7836e478b4624789",
          "topics": [
            "0xe19260aff97b920c7df27010903aeb9c8d2be5d310a2c67824cf3f15396e4c16",
            "0x000000000000000000000000e60b9c8a0dd31cd8b9fc74d2f2bca15b1ac01a4a",
            "0x0000000000000000000000009ddfaca8183c41ad55329bdeed9f6a8d53168b1b"
          ],
          "data": "0x00000000000000000000000000000000000000000000000029a2241af62c000000000000000000000000000000000000000000000000000000000000000000400000000000000000000000000000000000000000000000000000000000000020c65aa42895a6a88bd6320e83d98c4015c31ee7aa8924a82ed44fa77f8b46353f",
          "blockHash": "0x266c89f4a7ef27bbc165cbac03dda1f64438ba30d95e078e1f141661d4ec30f7",
          "blockNumber": "0x7de2bc",
          "blockTimestamp": "0x68169780",
          "transactionHash": "0xd8e16916f5302f8c1a0cffad2ca5db24994995ef39568fee467b1b0d81240523",
          "transactionIndex": "0x7a",
          "logIndex": "0xd9",
          "removed": false
        },
        {
          "address": "0x9ddfaca8183c41ad55329bdeed9f6a8d53168b1b",
          "topics": [
            "0x1ced9348ff549fceab2ac57cd3a9de38edaaab274b725ee82c23e8fc8c4eec7a",
            "0xc65aa42895a6a88bd6320e83d98c4015c31ee7aa8924a82ed44fa77f8b46353f"
          ],
          "data": "0x000000000000000000000000000000000000000000000000000000000000000000000000000000000000000000000000000000000000000029a2241af62c0000",
          "blockHash": "0x266c89f4a7ef27bbc165cbac03dda1f64438ba30d95e078e1f141661d4ec30f7",
          "blockNumber": "0x7de2bc",
          "blockTimestamp": "0x68169780",
          "transactionHash": "0xd8e16916f5302f8c1a0cffad2ca5db24994995ef39568fee467b1b0d81240523",
          "transactionIndex": "0x7a",
          "logIndex": "0xda",
          "removed": false
        }
      ],
      "logsBloom": "0x00000004000000000000000000000000000000000420000000000000020000000000000000000000000000000000000000000000000000000000000000000000000000000000000000000008800000000000000000000000000020008020000008000000000000000000000000000000000000000000000000000010000040000000000000000000000000010000800000000020000000000000000000000000004000000000000000000000010040000000000000000000000004000002000000000002000000000000000000000000000000000000000100000000000000000010000000000000800000000000000000000000000000000000000000000000",
      "type": "0x2",
      "transactionHash": "0xd8e16916f5302f8c1a0cffad2ca5db24994995ef39568fee467b1b0d81240523",
      "transactionIndex": "0x7a",
      "blockHash": "0x266c89f4a7ef27bbc165cbac03dda1f64438ba30d95e078e1f141661d4ec30f7",
      "blockNumber": "0x7de2bc",
      "gasUsed": "0x133b1",
      "effectiveGasPrice": "0x103f75c2",
      "from": "0xe60b9c8a0dd31cd8b9fc74d2f2bca15b1ac01a4a",
      "to": "0x779877a7b0d9e8603169ddbd7836e478b4624789",
      "contractAddress": null
    }
  ],
  "libraries": [],
  "pending": [],
  "returns": {},
  "timestamp": 1746311041,
  "chain": 11155111,
  "commit": null
}